:020000040800F2
:10000000C00D002049020008850200088702000890
:10001000890200088B0200088D0200080000000021
:100020000000000000000000000000008F02000837
:100030009102000800000000930200085920000807
:10004000970200089702000897020008970200082C
:10005000970200089702000897020008970200081C
:10006000970200089702000897020008970200080C
:1000700097020008970200089702000897020008FC
:1000800097020008970200089702000897020008EC
:10009000970200089702000897020008690D0008FF
:1000A00097020008970200089702000897020008CC
:1000B00097020008970200089702000897020008BC
:1000C00097020008970200089702000897020008AC
:1000D000970200089702000897020008970200089C
:1000E0002D0D0008970200089702000897020008EB
:1000F000970200089702000897020008970200087C
:10010000970200089702000897020008970200086B
:10011000970200089702000897020008970200085B
:10012000970200089702000897020008970200084B
:10013000970200089702000897020008970200083B
:10014000970200089702000897020008970200082B
:10015000970200089702000897020008970200081B
:10016000970200089702000897020008970200080B
:10017000970200089702000897020008000000009C
:10018000970200089702000800F002F800F04DF80E
:100190000AA090E8000C82448344AAF10107DA45E2
:1001A00001D100F042F8AFF2090EBAE80F0013F0E7
:1001B000010F18BFFB1A43F0010318477824000011
:1001C00098240000103A24BF78C878C1FAD85207A2
:1001D00024BF30C830C144BF04680C6070470000C1
:1001E0000023002400250026103A28BF78C1FBD840
:1001F000520728BF30C148BF0B607047642900F028
:10020000CF80632900F0F181002070471FB502F014
:100210000BFA00F091FC04000020002102F0EEF93E
:10022000401C60601FBD10B510BD00F05FFA1146A4
:10023000FFF7ECFF02F088F900F068FC03B4FFF769
:10024000F2FF03BC00F07CFC16481749174B99429B
:100250003CBF50F8042B41F8042BF8D314494FF05D
:1002600000028B4238BF43F8042BFAD3DFF8440076
:10027000016841F470010160BFF34F8FBFF36F8FCE
:100280000D480047FEE7FEE7FEE7FEE7FEE7FEE774
:10029000FEE7FEE7FEE7FEE708480949094A0A4B80
:1002A0007047000064270008000000203000002094
:1002B000C00D002088ED00E089010008C007002083
:1002C000C00D0020C0090020C00900200FB404495F
:1002D00010B503AA029800F095F910BC5DF814FB64
:1002E000080000202DE9F0410E460446002020625F
:1002F0002046E168884730B3252805D0D4E901219C
:100300009047206A401CF2E7E168204600278847B2
:10031000050018D0A5F14100192802D820354FF466
:1003200000673246294620462760FFF767FF40B145
:10033000012804D0F61D26F007060836D8E7361D3A
:10034000D6E72846DAE7206ABDE8F08170B50C46AA
:100350000546012A05D02878800600D5EA690023E1
:1003600002E0012305E05B1C934202D2E05C00281E
:10037000F9D1A869E618C01AA861286A1844286249
:100380002846AFF3008004E0D5E9012114F8010B01
:100390009047B442F8D32846AFF3008070BD000008
:1003A0002DE9F0410646002410687529314616A54E
:1003B00010D0AFF30080002802DA404213A507E016
:1003C00031688A0701D512A502E0490704D511A5B5
:1003D000012401E0AFF3008000210A2206F1240786
:1003E00009E0B0FBF2FCB0FBF2F302FB1C00303082
:1003F00078541846491C0028F3D123462A46304633
:10040000BDE8F04100F08EB8000000002D000000B3
:100410002B000000200000000FB400B589B00BA82D
:100420006A46009003480A9900F0FEF809B05DF8AA
:1004300014FB00000C0000202DE9FF5F4FF00008C6
:100440009946144646469169D2E901A7DDF838B0CD
:1004500001988847054659EA0B0005D009E0A169D3
:100460000198761C88470546216A28468847002857
:10047000F5D1681C03D05FEACA7005D015E04FF0D3
:10048000FF3004B000F048B82068011D2160D0F8AA
:1004900000800AE05FEACA7001D108F8015BA16937
:1004A000761C01987F1E88470546002F1ADD681CC0
:1004B00018D0B9F1000F0DD0E81705EBD06042114C
:1004C00020F01F0059F822102A1A01209040014202
:1004D000E0D107E0BBF1000FDCD12846216A884754
:1004E0000028D7D0E16901988847BBF1000F07D1F8
:1004F000002E05DD5FEACA7002D1002188F80010E5
:10050000A068B84203DDBBF1000F03D017B16FF054
:100510000100B6E73046B4E730BCBDE8C09F704785
:10052000704770472DE9F0470D46994692460446BC
:1005300000F124080168880604D5E06921F0100163
:10054000216000E00120A84201DD471B00E00027F8
:10055000A1697A1902EB0900081AA0612078C00687
:1005600002D42046AFF30080002608E0D4E9012140
:100570001AF806009047206A401C761C20624E45FF
:10058000F4DB2078C0060AD52046AFF3008006E0F1
:10059000D4E9012130209047206A401C2062381E97
:1005A000A7F10107F4DC07E0D4E9012118F8050000
:1005B0009047206A401C2062281EA5F10105F3DC4B
:1005C0002046AFF300802078000602D50220BDE867
:1005D000F0870120FBE710B5436913B1AFF300804A
:1005E00001E0FFF7B3FE012010BD127800F12401F5
:1005F0000A7000224A700122EDE711684FF0FF32C5
:10060000E9E70000074B70B50D467B4400F01DF88C
:100610000446284600F066F810B14FF0FF3070BD78
:10062000204670BD1F1F0000034B7B449361034BAA
:100630007B44D36100F022B8EB1E00006B00000089
:1006400001694A1C02610878704700B58FB0CDE996
:1006500001310021059105497944CDE90310114686
:100660006846FFF73FFE0FB000BD0000E5FFFFFF4B
:10067000026811441378016018467047D16005493B
:100680007944516104497944116200211161114694
:1006900000F05AB8EDFFFFFFAD000000704710B545
:1006A0004FF0FF34C1688A020FD5036B42689A424B
:1006B0000BD1014690F82520104600F003FA401CAB
:1006C00001D1204610BD002010BD11F0C00FF8D19F
:1006D000026941689142F4D90268491E521CC0E97E
:1006E0000021F0E7007B00F080007047754600F0C5
:1006F00017FAAE4605006946534620F007008546C6
:1007000018B020B5FFF7C8FDBDE820404FF0000647
:100710004FF000074FF000084FF0000B21F00701E9
:10072000AC46ACE8C009ACE8C009ACE8C009ACE82C
:10073000C0098D46704710B5044600F0F5F9006811
:10074000005D00F0010010BD2DE9F34F4FF0000AED
:100750000C4656468DB001200C9001F10C000B9018
:1007600062690B9801219047051E2DD0252D2CD0B4
:10077000216A8847C0B162690B9801219047216ABC
:1007800088470028F7D16269411E0B98904700E026
:10079000761CA1690D988847216A88470028F7D1FF
:1007A000E1690D988847DBE7A1690D988847A84261
:1007B000074601D1761CD3E7E1690D9888477F1C75
:1007C00002D1BAF1000F6FD06CE162690B9800277B
:1007D0003D46394690472A2804D162690B98012189
:1007E00090470125DFF8D08262690B98012190477C
:1007F000A0F130010A290AD24745E5DC07EB870161
:1008000000EB4107303FDFD445F01005ECE7E90687
:1008100001D46FF000476C280AD04C2814D0682807
:1008200015D06A280DD074281CD07A281AD01DE063
:1008300062690B98012190476C2802D045F00405AD
:1008400014E045F002050DE045F020050AE062697C
:100850000B9801219047682802D045F0080505E073
:1008600045F4006562690B9801219047C4E901577E
:1008700065283DD019DC58287AD00CDC452837D0C3
:1008800004DC252826D041289ED131E046282FD0EF
:10089000472899D12CE05B2877D0612828D063289D
:1008A0007CD0642823D15AE0F7E06F2848D008DCD8
:1008B00066281DD067281BD0692821D06E2816D144
:1008C00027E0702845D0732868D0752847D078284D
:1008D0000DD14DE0A1690D988847252805463FF4C4
:1008E00069AFE1690D9888476D1C3FF46AAFD9E0A4
:1008F0000D9923466A466FF00100AFF30080C6E011
:1009000045F0400023464FF000026060A80736D44F
:100910003EE0E8077FF447AF2068011D21600068D2
:10092000290501D506701BE7290701D5068017E7C1
:10093000A90703D5F117C0E9006111E706600FE7C9
:1009400045F0400023464FF008026060A80716D427
:100950001EE040F60E0125EA0100606016E045F059
:10096000400023464FF00A026060A80707D40FE05A
:1009700045F040006060A80708D5234610220D9975
:100980006FF00100AFF3008081E007E01022234602
:100990000D996FF00100AFF3008078E04FF000098F
:1009A00063284F46C8464B46CB4602D05B2807D04B
:1009B00039E02079C00601D40120A060012732E08F
:1009C0006269D4F80CB00B98012190475E2807D1DA
:1009D0004FF0010949466269D4F80CB00B98904772
:1009E000216939B900210A4603AB43F82120491C8B
:1009F0000829FADBD8B3216949B308F10108626913
:100A00000B98012190475D28F4D1B9F1000F09D06E
:100A1000002003A951F82020D24341F82020401C97
:100A20000828F7DB03AB2069002820794FEA4070E3
:100A30001ED05B462246CDF80080CDE901970D9986
:100A400000286FF0010020DAAFF300801FE0C1172B
:100A500003AA00EBD1614B1121F01F0102EB8302CD
:100A6000411A13680120884003431360C7E719E067
:100A70000D99224600286FF00100009702DAAFF3CB
:100A8000008004E0FFF7D8FC01E0AFF3008000280D
:100A90000ADA401C06D10C9820B14FF0FF300FB09D
:100AA00000F00CB85046FAE7E90701D10AF1010A53
:100AB000064400200C9053E6CCCCCC0C30BCBDE8F6
:100AC000C08F0000CA68431C0FD00D4B1A420CD1D6
:100AD000D3070AD081F825004B680B6300238B6095
:100AE00012F0C06F0B6003D004E04FF0FF3070478E
:100AF00042F00072034B1A40034B1A43CA6070471E
:100B000080200800BFFFDFFF0010480010B504463A
:100B1000AFF300802046BDE81040FFF78FBB000018
:100B2000004870475C07002010B500F005F8001D74
:100B300010BD00BFC91A0000004870477C070020A4
:100B400001491820ABBEFEE7260002004FF0013C31
:100B500050F8042B51F8043B9A4221D1A2EB0C032C
:100B6000934313EACC1317D150F8042B51F8043BEC
:100B70009A4215D1A2EB0C03934313EACC130BD189
:100B800050F8042B51F8043B9A4209D1A2EB0C0314
:100B9000934313EACC13DBD04FF00000704700BF43
:100BA000D01A01BAB1FA81F101F0180122FA01F06C
:100BB000CB40C1F12001DBB2C0B2C01A2CFA01F364
:100BC000D11A914311EAC311E6D170477047000072
:100BD00070B5002479E00CB10B2C0BD1002503E09B
:100BE0003DA0FFF773FB6D1C332DF9DB3BA0FFF736
:100BF0006DFB69E0022C0BD1002503E038A0FFF764
:100C000065FB6D1C142DF9DB36A0FFF75FFB5BE085
:100C1000042C0CD1002503E031A0FFF757FB6D1C1D
:100C2000152DF9DB0121002000F07CFF4CE0052CA4
:100C30000CD1002503E02AA0FFF748FB6D1C152D01
:100C4000F9DB0121084600F06DFF3DE0062C0CD1D8
:100C5000002503E022A0FFF739FB6D1C152DF9DB01
:100C60000121022000F05EFF2EE0072C0CD10025B0
:100C700003E01BA0FFF72AFB6D1C152DF9DB0121FA
:100C8000032000F04FFF1FE0062C0CD1002503E0ED
:100C900013A0FFF71BFB6D1C152DF9DB01210420B0
:100CA00000F040FF10E0092C0BD1002503E00CA060
:100CB000FFF70CFB6D1C032DF9DB0EA0FFF706FB05
:100CC00002E006A0FFF702FB641C0C2C83DB154935
:100CD00015A0FFF7A1FB70BD230000000A00000073
:100CE00020000000484947482053434F5245530ACB
:100CF000000000005479706520616E79206C657485
:100D000074657220746F2072657475726E20746FD2
:100D100020746865207469746C65207363726565FE
:100D20006E0A00002B0000202563000010B50A4861
:100D3000006840F400500849086008480068401CFA
:100D4000064908600846016805A0FFF7BFFA05A03C
:100D5000FFF7BCFA10BD00001404014000000020A1
:100D6000256400000A0000001848006800F40070C4
:100D700050B11648006840F40070144908601448E7
:100D80000068401C124908601048006800F08000AC
:100D900050B10E48006840F080000C490860012105
:100DA0000C480B4A126881540848006800F0400063
:100DB00050B10648006840F040000449086004480B
:100DC0000068401E0249086070470000140401409A
:100DD00010000020C306002010B54848C06C40F049
:100DE00001004649C8640846C06C40F00200C8646F
:100DF0004FF09040006820F440504FF09041086060
:100E00000846C06820F44050C8600846006820F4D6
:100E1000404008600846C06820F44040C860384838
:100E2000006820F440203649086035480C300068DE
:100E300020F4402032490C3108603048006E40F008
:100E400001002E4908662F48C06820F4E0612D4853
:100E5000C160C0682B49C8600846C06820F4E04102
:100E60002848C160C0682749C8600846006920F06A
:100E7000700124480161006940F0100121480161BE
:100E80002148006820F040001F490860081D0068E4
:100E900040F04000091D0860081F006820F0800035
:100EA000091F0860081D006840F08000091D0860E7
:100EB000081F006820F40070091F0860081D006802
:100EC00040F40070091D08600F480838006840F0C1
:100ED00040000D49083908600846006840F080006D
:100EE00008600846006840F400700860172001F0B0
:100EF000E0FA0021172001F0EDFA10BD00100240C9
:100F000000040048000001400804014010B52048DA
:100F1000C06C40F004001E49C8641E48006820F000
:100F200040601C4908601B480C30006820F040609D
:100F300018490C3108601648006E40F00100144951
:100F400008661548406920F0700113484161406906
:100F500040F02001104841611048006820F4005022
:100F60000E490860081D006840F40050091D086023
:100F70000A480838006840F40050084908390860F9
:100F8000282001F096FA0021282001F0A3FA10BDD4
:100F90000010024000080048000001400804014021
:100FA00010B51A204149086014204149086000F03A
:100FB000A7FD4049086000203F4908603F4908609C
:100FC0003F4908603F49087001203F4908700021EF
:100FD00069E0002064E0022901D0042918D102460A
:100FE00000EBD2735B10A0EB4303CBB9052817DDF0
:100FF0002D2815DA012201EB011303EB4303334CD7
:1010000023441A542D4A1268521C2C4B1A6007E0D4
:10101000002201EB011303EB43032C4C23441A542D
:10102000002201EB011303EB4303294C23441A5420
:1010300021B10B2902D008B1322808D1232201EBBB
:10104000011303EB4303234C23441A5427E001EB21
:10105000011202EB42021D4B1A44125C42B14F22B4
:1010600001EB011303EB43031A4C23441A5416E01B
:101070000A290CD10D4A1268904208D1412201EB95
:10108000011303EB4303134C23441A5407E02022BB
:1010900001EB011303EB43030E4C23441A54401C91
:1010A000332898DB491C0C2993DB10BD100000206D
:1010B00014000020180000201C0000202000002048
:1010C0002400002028000020290000209402002095
:1010D000F80400203000002070B5002451E00CB16D
:1010E0000B2C0BD1002503E08DA0FFF7EFF86D1C52
:1010F000332DF9DB8BA0FFF7E9F841E0032C12D187
:10110000002503E088A0FFF7E1F86D1C142DF9DB42
:1011100086A0FFF7DBF88748006800F079FF81A020
:10112000FFF7D4F82CE0052C0BD1002503E07EA0BE
:10113000FFF7CCF86D1C062DF9DB7FA0FFF7C6F892
:101140001EE0072C0BD1002503E077A0FFF7BEF8C7
:101150006D1C0E2DF9DB82A0FFF7B8F810E0092C0A
:101160000BD1002503E070A0FFF7B0F86D1C172D20
:10117000F9DB82A0FFF7AAF802E06AA0FFF7A6F861
:10118000641C0C2CABDB7F497FA0FFF745F90024E2
:1011900056E00CB10B2C0BD1002503E060A0FFF74B
:1011A00095F86D1C332DF9DB5EA0FFF78FF846E054
:1011B000032C12D1002503E05BA0FFF787F86D1C1C
:1011C000142DF9DB59A0FFF781F85A48006800F0A8
:1011D0001FFF54A0FFF77AF831E0052C0BD1002552
:1011E00003E051A0FFF772F86D1C062DF9DB52A049
:1011F000FFF76CF823E0072C0BD1002503E04AA091
:10120000FFF764F86D1C0E2DF9DB55A0FFF75EF8B3
:1012100015E0092C10D1002503E043A0FFF756F894
:101220006D1C172DF9DB5748017857A0FFF74EF8D2
:1012300056A0FFF74BF802E03AA0FFF747F8641C0E
:101240000C2CA6DB4F49491C4FA0FFF7E5F8002402
:101250005EE00CB10B2C0BD1002503E030A0FFF7B2
:1012600035F86D1C332DF9DB2EA0FFF72FF84EE07B
:10127000032C12D1002503E02BA0FFF727F86D1CEB
:10128000142DF9DB29A0FFF721F82A48006800F0A7
:10129000BFFE24A0FFF71AF839E0052C0BD100257A
:1012A00003E021A0FFF712F86D1C062DF9DB22A048
:1012B000FFF70CF82BE0072C0BD1002503E01AA058
:1012C000FFF704F86D1C0E2DF9DB25A0FEF7FEFFDD
:1012D0001DE0092C18D1002503E013A0FEF7F6FF4E
:1012E0006D1C172DF9DB2748017827A0FEF7EEFFCC
:1012F0000DA0FEF7EBFF2348417823A0FEF7E6FFA1
:1013000024A0FEF7E3FF02E006A0FEF7DFFF641C67
:101310000C2C9EDB1B49891C1BA0FFF77DF870BDC0
:10132000230000000A0000002000000053636F72D9
:10133000653A20001C000020496E70757420796F9A
:10134000757220696E7469616C7320746F207361AB
:10135000766520796F75722073636F7265210A005C
:10136000496E70757420796F757220666972737436
:1013700020696E7469616C3A0A0000005F205F208A
:101380005F0A00002A00002025630000205F205F24
:101390000A000000205F0A0070B5002435E00CB19F
:1013A0000B2C0BD1002503E019A0FEF78FFF6D1C5D
:1013B000332DF9DB17A0FEF789FF25E0052C0BD1B3
:1013C000002503E014A0FEF781FF6D1C152DF9DB4D
:1013D00012A0FEF77BFF17E0072C12D1002503E0D7
:1013E0000DA0FEF773FF6D1C142DF9DB0EA0FEF7A8
:1013F0006DFF0F48006800F00BFE06A0FEF766FFC9
:1014000002E004A0FEF762FF641C0C2CC7DB70BD79
:10141000230000000A0000002000000047414D4565
:10142000204F5645520A000053636F72653A200000
:101430001C00002070B5002430E000250AE004EB19
:10144000041000EB4000174A1044415D16A0FEF75F
:101450003DFF6D1C332DF2DB012C07D113A0FEF7ED
:1014600035FF1548016815A0FEF730FF062C08D19E
:1014700013A0FEF72BFF1648016810A0FEF726FF09
:1014800008E0072C06D113A0FEF720FF14480068DF
:1014900000F0BEFD13A0FEF719FF641C0C2CCCDB82
:1014A00070BD000030000020256300002020205483
:1014B000696D653A200000001400002025640000DA
:1014C00020202048692D53636F72653A2000000088
:1014D0001800002020202053636F72653A2000001E
:1014E0001C0000200A00000070B5002458E00CB178
:1014F0000B2C0BD1002503E02CA0FEF7E7FE6D1CA2
:10150000332DF9DB2AA0FEF7E1FE48E0032C12D1CF
:10151000002503E027A0FEF7D9FE6D1C142DF9DB92
:1015200025A0FEF7D3FE2648006800F071FD20A03C
:10153000FEF7CCFE33E0062C0BD1002503E01DA006
:10154000FEF7C4FE6D1C142DF9DB1EA0FEF7BEFED7
:1015500025E0092C20D1002503E016A0FEF7B6FEF9
:101560006D1C172DF9DB1B4801781BA0FEF7AEFEA2
:1015700010A0FEF7ABFE1748417817A0FEF7A6FEB5
:101580000CA0FEF7A3FE1348817813A0FEF79EFE81
:1015900007A0FEF79BFE02E005A0FEF797FE641C85
:1015A0000C2CA4DB00F032FF70BD00002300000013
:1015B0000A0000002000000053636F72653A2000AB
:1015C0001C0000204E6963652073636F7265210AF9
:1015D000000000002A0000202563000038B5002428
:1015E0004AE00CB10B2C0BD1002503E02AA0FEF73A
:1015F0006DFE6D1C332DF9DB28A0FEF767FE3AE087
:10160000042C0BD1002503E025A0FEF75FFE6D1C26
:10161000122DF9DB23A0FEF759FE2CE0052C0BD18F
:10162000002503E01EA0FEF751FE6D1C162DF9DB10
:1016300020A0FEF74BFE1EE0082C0BD1002503E096
:1016400017A0FEF743FE6D1C082DF9DB1CA0FEF76A
:101650003DFE10E0092C0BD1002503E010A0FEF7A1
:1016600035FE6D1C0A2DF9DB1EA0FEF72FFE02E0F1
:101670000AA0FEF72BFE641C0C2CB2DB694621A0ED
:10168000FEF7CAFE0020204908709DF80000682877
:1016900001D10120087038BD230000000A000000BD
:1016A00020000000535041434520494E56414445D7
:1016B00052530A0028736F727461290A00000000F7
:1016C000547970652022682220746F2076696577CE
:1016D00020746865206C6561646572626F61726414
:1016E000730A00005479706520616E79206F746808
:1016F0006572206C657474657220746F20737461F8
:1017000072740A00256300002D00002010B5ADF5AD
:10171000996D8C480068401E8A490860002014E0DA
:1017200000210FE0002200EB001303EB430399AC10
:1017300023445A5400EB001303EB43036C46234449
:101740005A54491C3329EDDB401C0C28E8DB7E4849
:101750000068042804DC7C48006810F1040F05DAF6
:101760007A48007880F0010078490870774800785E
:1017700028B175480068401C7349086004E072484D
:101780000068401E70490860002037E0002132E008
:1017900000EB001202EB42026D4B1A44525CC2B1E4
:1017A0006A4A12784AB9012300EB001202EB4202A6
:1017B00099AC14444A1EA3540BE0644A127842B117
:1017C000012300EB001202EB420299AC14444A1CC4
:1017D000A35400EB001202EB42025E4B1A44525C2F
:1017E00042B10123421E02EB021202EB42026C469E
:1017F00022445354491C3329CADB401C0C28C5DB46
:10180000002093E000218DE000EB001202EB420289
:1018100099AB1A44525C00EB001303EB43034C4CAE
:1018200023445A5400EB001202EB42026B461A4466
:10183000525C00EB001303EB4303464C23445A5421
:1018400000EB001202EB4202414B1A44525C02B31D
:1018500000EB001202EB420223461A44525CC2B172
:10186000002200EB001303EB4303394C23445A548A
:1018700000EB001303EB4303364C23445A54364A1F
:101880001268521E344B1A60344A12681432334BB9
:101890001A6020B10B2802D009B1322908D12322C5
:1018A00000EB001303EB43032D4C23445A5438E060
:1018B00000EB001202EB4202254B1A44525C42B18B
:1018C0004F2200EB001303EB4303254C23445A54EF
:1018D00027E000EB001202EB42021E4B1A44525C5E
:1018E00042B12A2200EB001303EB43031C4C2344B8
:1018F0005A5416E00A280CD11A4A1268914208D1AB
:10190000412200EB001303EB4303154C23445A54CC
:1019100007E0202200EB001303EB4303104C2344A9
:101920005A54491C3329FFF66FAF401C0C28FFF6B0
:1019300069AF0448006810B900200B4908700DF524
:10194000996D10BD14000020240000202800002004
:1019500094020020F8040020200000201C00002039
:1019600030000020100000202900002010B5ADF547
:10197000197D00200DE0002108E0002200EB00139B
:1019800003EB43036C4623445A54491C3329F4DBCC
:10199000401C0C28EFDB002016E0002111E000EBDA
:1019A000001202EB4202504B1A44525C42B1012336
:1019B000421E02EB021202EB42026C4622445354D6
:1019C000491C3329EBDB401C0C28E6DB002085E0BA
:1019D00000217FE000EB001202EB42026B461A444A
:1019E000525C00EB001303EB43033F4C23445A5477
:1019F00000EB001202EB42023C4B1A44525C02B371
:101A000000EB001202EB420223461A44525CC2B1C0
:101A1000002200EB001303EB4303344C23445A54DD
:101A200000EB001303EB43032F4C23445A54304A7A
:101A30001268521E2E4B1A602E4A126814322D4B19
:101A40001A6020B10B2802D009B1322908D1232213
:101A500000EB001303EB4303274C23445A5438E0B4
:101A600000EB001202EB4202204B1A44525C42B1DE
:101A70004F2200EB001303EB43031F4C23445A5443
:101A800027E000EB001202EB4202174B1A44525CB3
:101A900042B12A2200EB001303EB4303164C23440C
:101AA0005A5416E00A280CD1144A1268914208D1FF
:101AB000412200EB001303EB43030F4C23445A5421
:101AC00007E0202200EB001303EB43030A4C2344FE
:101AD0005A54491C3329FFF67DAF401C0C28FFF6F1
:101AE00077AF0DF5197D10BDF80400209402002099
:101AF000200000201C0000203000002010000020EA
:101B000070B50026002508E00021284600F00AF8FC
:101B10000446B44200DD26466D1C052DF4DB30463C
:101B200070BD0000F0B585B004460D46A027042026
:101B30000490002000EB8400C0B20390002615E062
:101B400075B1012002A903AB04AACDE90010394602
:101B5000224800F0A1F99DF8081021A0FEF7B6FB7D
:101B60009DF80C00401CC0B20390761C032EE7DBEE
:101B7000012002A903AB04AACDE900103946174899
:101B800000F08AF905B317A0FEF7A0FB9DF8080046
:101B9000B0F57A7F10DA14A0FEF798FB9DF80800E4
:101BA000642809DA10A0FEF791FB9DF808000A28C6
:101BB00002DA0DA0FEF78AFB9DF808100BA0FEF7D5
:101BC00085FB0BA0FEF782FB9DF80C00401CC0B209
:101BD00003909DF8080005B0F0BD000000540040DF
:101BE0002563000020000000300000002564000094
:101BF0000A0000003148C06C40F002002F49C86460
:101C00002F48006820F440502D49086008460068BD
:101C100040F4005008602A482030006820F07060CE
:101C20002749203108600846006840F0806008605D
:101C30002348006820F440402149086008460068B5
:101C400040F4004008601E482030006820F07040DA
:101C50001B49203108600846006840F08040086059
:101C60001748001D006840F040001549091D086034
:101C70000846006840F080000860081D006840F4D5
:101C80004050091D08600846006840F44040086064
:101C9000081D006820F44050091D086008460068CF
:101CA00040F4805008600846006820F44040086016
:101CB0000846006840F48040086070470010024009
:101CC0000004004852205349896D41F40011514AE3
:101CD000916550498831096821F44051C2F8881053
:101CE0001146D1F8881041F48051C2F8881011468D
:101CF000896B41F4001191631146896B21F4001145
:101D000091634549096821F00101434A1160114678
:101D1000096841F4805111601146096841F470610D
:101D200011601146096841F080011160114609688F
:101D300021F400311160111D096821F40061121DA8
:101D400011601146096841F000711160114609687F
:101D500041F40041116030491031096821F07041AF
:101D60002D4A103211601146096841F0104111608E
:101D70001146096821F4700111601146096841F4A7
:101D8000000111601146096821F4702111601146AB
:101D9000096841F4202111601146096821F47F414E
:101DA00011601146096841F400511160114609683B
:101DB00021F0FF0111601146096841F02501116011
:101DC00015490831096821F40041134A08321160AD
:101DD000111D096821F40041121D1160111F0968CD
:101DE00021F48061121F1160114609686FF3090127
:101DF000116011460968014311601146096841F4F8
:101E0000004111600449096841F00101024A116072
:101E10007047000000100240005400402DE9F041DE
:101E20000446884617461D46002D00DD1FB94FF0B9
:101E3000FF30BDE8F081204600F0C7F800232A46B5
:101E40004146204600F098F8002802DA4FF0FF30B3
:101E5000EFE7002608E000BFA06900F002000028BC
:101E6000FAD0B85DA062761CAE42F4DB00BFA06978
:101E700000F0400020B9A06900F010000028F6D062
:101E8000A06900F0100010B14FF0FF30D1E72046FC
:101E900000F090F80020CCE72DE9F04704468A4690
:101EA00017469846DDE90896002E06DD2FB1B8F1F9
:101EB000000F02D0B9F1000F03D14FF0FF30BDE8A1
:101EC000F087204600F081F8022600233246514672
:101ED000204600F051F8002801DAF01EEFE7012655
:101EE000002508E000BFA06900F002000028FAD039
:101EF000785DA0626D1CB542F4DB002509E000BFEF
:101F0000A06900F002000028FAD018F80500A062CD
:101F10006D1CB542F3DB00BFA06900F0400020B9A2
:101F2000A06900F010000028F6D0A06900F01000B1
:101F300010B14FF0FF30C2E7012332465146204630
:101F400000F01AF8002509E000BFA06900F00400C5
:101F50000028FAD0606A09F805006D1CB542F3DB71
:101F600000BFA06900F040000028FAD0204600F031
:101F700021F80020A3E7000070B504460D460021BB
:101F800061680B480140012B02D141F4806101E0FE
:101F900021F48061C5F309004FF47F0606EA02468A
:101FA0003043014341F400516160002070BD0000E6
:101FB000009800FC416841F48041416000BF8169A4
:101FC00001F020010029FAD0704700BF816901F4B7
:101FD0000041B1F5004FF9D07047000010B504463C
:101FE000012C07D100F049F900F046F9064800F04D
:101FF000C3F908E0022C06D100F09CF900F03EF98C
:10200000024800F0B9F910BD00380140004400401A
:1020100010B504460D480068B0F57A7F10DA0CA0C0
:10202000FEF754F909480068642809DA08A0FEF7A9
:102030004DF9064800680A2802DA05A0FEF746F9BD
:102040000248016803A0FEF741F910BD1C00002002
:10205000300000002564000002480068401C01496F
:10206000086070470400002010B500204FF0E02108
:10207000086142F20F70486100208861401E00280C
:102080000DDB00BF00BF00F01F020121914042099B
:10209000920002F1E022C2F8001100BF00BF00BFB1
:1020A0004FF0FF300121002804DB0A07130E0F4A0E
:1020B000135406E00A07140E0D4A00F00F031B1F0D
:1020C000D45400BF4FF0E020006940F002004FF010
:1020D000E02108610846006920F004000861084614
:1020E000006940F00100086110BD000000E400E05C
:1020F00018ED00E05E49096821F007015C4A1160B3
:102100001146096841F0020111605A49096841F419
:102110008071584A116000BF5649096801F4806116
:102120000029F9D010205349496821F0F851514A4B
:1021300051601146496841EA0061516011460968E1
:1021400021F08071116000BF4A49096801F00071F7
:10215000B1F1007FF8D04749C96821F00301454A31
:10216000D1601146C96841F00201D1601146C968C9
:1021700021F4FE4141F4A051D1601146C96821F01B
:10218000700141F01001D1601146C96821F0C061B1
:10219000D1601146C96841F08071D160114609686B
:1021A00041F08071116000BF3249096801F000718F
:1021B0000029F9D02F49896821F003012D4A916047
:1021C0001146896841F00301916000BF294989687F
:1021D00001F00C010C29F9D12649896821F0F001A0
:1021E000244A91601146896821F4E06191601146AA
:1021F000896821F4605191601146096821F080617D
:10220000116000BF1B49096801F08061B1F1806F66
:10221000F8D01849096921F4FE41164A11611146A6
:10222000096941F4C05111611146096941F4003155
:1022300011611146096941F4803111611146096843
:1022400041F08061116000BF0A49096801F08061B6
:102250000029F9D007498831096821F44001054A6D
:10226000C2F888101146096E41F4001111667047DA
:102270000020024000100240704770472C48C06C9C
:1022800040F001002A49C8644FF09040006820F0F7
:1022900030004FF0904108600846006840F0200090
:1022A00008600846006A40F4706008620846006AE8
:1022B00020F4006008620846006820F0C000086052
:1022C0000846006840F0800008600846006A40F454
:1022D000704008620846006A20F400400862084620
:1022E000806840F0300088600846806840F0C00098
:1022F00088600846406820F004004860084640684E
:1023000020F0080048600846C06820F03000C8602F
:102310000846C06840F01000C8600846C06820F059
:10232000C000C8600846C06840F04000C860704700
:10233000001002400A48806D40F40030084988656A
:1023400007488830006820F00C00C1F88800084673
:10235000D0F8880040F00400C1F888007047000001
:1023600000100240642242430723B2FBF3F100BF96
:102370004A1E111EFCD17047016821F00101016065
:10238000016821F010210160016821F40041016021
:10239000416821F44051416040F25B11C160016825
:1023A00041F008010160016841F004010160016829
:1023B00041F0010101607047014600BFC86900F0AB
:1023C00020000028FAD0888CC0B27047F0B50446CF
:1023D0000E46174600250CE000BFE06900F08000C3
:1023E0000028FAD0705D20854FF49670FFF7BAFF91
:1023F0006D1CBD42F0D300BFE06900F04000002832
:10240000FAD0E06920F04000E061F0BD2DE9F04134
:10241000002642F20F77002509E000212846FFF749
:1024200081FB0446BC4201DA27462E466D1C052D71
:10243000F3DB0D4802780021304600F019F80A4815
:1024400042780121304600F013F8074882780221D3
:10245000304600F00DF8054803210268304600F0D0
:1024600007F8BDE8F08100002A0000201C000020D1
:102470002DE9F84F04460D461646A0274FF00408F4
:1024800005EB840000F0FF0906F0FF0A8DF80080DC
:102490008DF801908DF802A003236A463946024860
:1024A000FFF7BCFC00F002B80054004018BCBDE8C7
:1024B000E08F00280DDB00BF00BF00F01F020121EC
:1024C00091404209920002F1E022C2F8001100BFDF
:1024D00000BF704710B5002804DB0A07130E054A39
:1024E000135406E00A07140E034A00F00F031B1FE3
:1024F000D45410BD00E400E018ED00E0054A116876
:1025000000BF044A1268521A8242FAD30022014BD9
:102510001A6070470400002070B505460248FFF7B6
:102520004BFF0446204670BD0044004038B50446C9
:102530000D46E0B20090012269460248FFF746FFCF
:10254000204638BD00440040FFF7D4FDFFF752FBA2
:10255000FFF7B8FB0220FFF741FDFEF7D7FC244848
:10256000C06C40F001002249C8640846C06C40F0CD
:102570000400C864FEF730FCFFF776FD36E0FFF795
:102580002DF81C48007810B1FEF722FB2EE0FEF774
:1025900007FDFEF74FFF14E0C820FFF7AFFFFFF77E
:1025A000B5F8FEF747FFC820FFF7A8FFFFF7DEF9F1
:1025B000FEF740FFC820FFF7A1FFFFF7D7F9FEF7AE
:1025C00039FF0D4800780028E6D1FEF7E5FE4FF40C
:1025D000FA60FFF793FFFEF77FFDFEF785FF4FF4EC
:1025E000FA60FFF78BFFFEF7F3FA00BFC7E70000C2
:1025F000001002402D0000202900002010B5002905
:102600000AD00878002807D005487844FEF79EFADB
:10261000002801D0002010BD0248784410BD000001
:102620004A000000420000004FF04070E1EE100A46
:102630007047000064270008000000203000000000
:10264000C40100089427000830000020900D00000D
:10265000E00100081001000043000000F8FFFFFF48
:1026600000404040404040404040414141414140A5
:10267000404040404040404040404040404040405A
:1026800040050202020202020202020202020202E9
:1026900002202020202020202020200202020202EE
:1026A0000202909090909090101010101010101046
:1026B0001010101010101010101010100202020252
:1026C0000202888888888888080808080808080896
:1026D0000808080808080808080808080202020292
:1026E00040000000000000000000000000000000AA
:1026F00000000000000000000000000000000000DA
:1027000000000000000000000000000000000000C9
:1027100000000000000000000000000000000000B9
:1027200000000000000000000000000000000000A9
:102730000000000000000000000000000000000099
:102740000000000000000000000000000000000089
:102750000000000000000000000000000000000079
:10276000000000000A00000000000000000000005F
:102770000000000000000000000000000000000059
:102780000000000000000000000000000000000049
:042790000000000045
:040000050800018965
:00000001FF
